:020000040020DA
:10000000AC6E0020D91122000D1222001512220020
:100010001D1222001D1222001D12220000000000ED
:100020000000000000000000000000001D1222007F
:100030001D122200000000001D122200C90D220026
:100040001D1222001D1222001D1222001D1222006C
:10005000000000001D12220009C820001D1222000D
:100060001D1222000000000000000000000000003F
:1000700000000000000000001D122200000000002F
:1000800000000000000000001D1222001D122200CE
:100090001D1222001D1222001D1222001D1222001C
:1000A0001D1222001D122200354E2000BB4E2000E2
:1000B0001D1222001D1222001D1222001D122200FC
:1000C00045132200DB4D20001D1222001D122200CC
:1000D0001D122200000000000000000000000000CF
:1000E0000000000000000000000000000000000010
:1000F0001D122200000000001D122200000000005E
:10010000082102F0E2BD10B5B24C206908B102F03E
:10011000A9FFDFF8FC0BA0600021082020732175E7
:10012000002020610B22DFF8B40A80F8201004F1CF
:10013000150002F00FFC04F12000BDE810400B2276
:10014000002102F007BC000030B50446201D83B03A
:1001500005214182032101746168491E4A1E6260C3
:1001600094F83A200A7094F83A1011B14FF6FF71E2
:1001700081860268818E521E0260090A02F8011F00
:100180006168828E0A700179C91C017100A804F1AE
:100190002F0102F0E7FF03208DF8080000AADFF826
:1001A0006008C38C0321204601F076FD050004BFE2
:1001B000204600F0D3FE01F064BE000070B5044696
:1001C0000D4661680498160A01F8016D01F8012DC9
:1001D00001F8010DDFF82808428D120A01F8012DFF
:1001E000408D01F8010D180A01F8010D01F8013DDB
:1001F000207A62681018401A20726160287A0328F9
:100200000CBF01200020E0820B220920207504F1A0
:100210002400DFF8501C02F079FB4FF6FF732A46EA
:100220000321204601F038FD050004BF204600F000
:1002300095FE284670BD2DE9F04705460F469246CB
:10024000002602F0ADFFDFF8208CD8F8004000F067
:10025000010080F0010913E0607E400613D560685C
:100260004178C1F3810103290DD1ED1F411D2846BD
:1002700002F078FF103654F8084C6D1EF6B27F1E5F
:10028000FFB227B101E054F8084C002CE4D1B9F1D9
:10029000000F18BF02F080FF02F082FF00F00100A3
:1002A000D8F8001080F001000BE0927905F80129E0
:1002B000761C4A68527905F80129F6B27F1E51F87A
:1002C000081C89B14A685378C3F38103022BF6D125
:1002D0004B7E5B06E9D40A7E9206F0D50122FFB27E
:1002E0008AF80020002FEAD108B102F055FF2E70E5
:1002F000681EBDE8F08700002DE9F04784B0804615
:1003000000208DF800008946DFF85C0B857A924664
:10031000082DA8BF0725DFF8E876387B00EBC5007D
:100320004130C6B2304602F04DFB04004ED03019C9
:100330006060002020723A7B616850424618B968BC
:10034000304602F0E3FA00AA2946701EFFF773FF59
:100350000021DFF8042C0170527B7978920142EA87
:10036000C11141EA0A1141F00F0100F8011D48EAEC
:10037000091100F8011D6268217A5118091A2172C9
:1003800060600B220020E08220758DF80C0004F1E3
:100390002400DFF8A81C02F0B9FA9DF8000018B19B
:1003A000E08A40F00800E0824FF6FE71788D8842C6
:1003B000ACBF03210221002301AA204601F06CFCFE
:1003C0000028204602D002F016FB002004B0BDE851
:1003D000F0870000104B0020F8B5044602F0E0FE64
:1003E00000F0010080F00105DFF87C0A07680026B4
:1003F0000EE0787E000609D56168786801F0F8FBA8
:1004000020B1787E00F0BF0078763E4657F8087C31
:10041000002FEED11EB1707E40F040007076002DAE
:100420001CBFBDE8F14002F0B7BEF1BD2DE9F041BF
:1004300082B00024009402F0B3FE00F00100DFF867
:10044000286A376880F001050EE057F8088C2246CC
:100450003946304602F0E2FB394600A802F088FB3C
:10046000B07A401E4746B07267B1787E000605D567
:10047000788A401E788280B20028E6D03C4657F841
:10048000087CF1E70DB102F087FEB07AE8B1DFF841
:100490007005DFF84847407B0F281CBF94F8200008
:1004A000002812D1DFF8AC5C284602F0D6F902F041
:1004B000CCFF3030686004F14801284602F096F91C
:1004C00003E06070204600F02AFC00A802F073FBF5
:1004D000040007D0FFF780FF607E40074CBFE92093
:1004E000F020EEE7BDE8F38138B50446FFF774FF6E
:1004F000DFF8640ADFF80855406F80470128E88D6F
:1005000008BF401C6082DFF86049A07A002804BF61
:10051000687B0F280DD1DFF83C5C284602F09DF97E
:1005200002F093FF303068602846DFF8F41C02F0D8
:100530005DF902F035FEA17A491CA172002804BFC2
:10054000BDE8314002F028BE31BD38B50446607EBA
:1005500000F0EF0060762046FFF73EFFDFF8085915
:100560002146284602F046FB02F01AFEA97A491CF1
:10057000A97208B902F010FEDFF88404407B0F284E
:1005800006D1BDE83440DFF8D009007BFFF7B8BDE5
:1005900031BD10B50446DFF86804407886B0C8B1B4
:1005A00001208DF8000004F11C0100208DF80100ED
:1005B0000DF1020002F0D6FD606800788DF80A00A7
:1005C0000B2204F10F010DF10B0002F09FF900A8BE
:1005D00002F0ACFF06B010BD10B50446FFF7B4FD45
:1005E000DC2818BFDD2808D0E42818BFF32804D081
:1005F000DE281CBFDF28DB2805D101462046BDE8E8
:10060000104001F043B910BD10B586B00446062075
:100610008DF8000004F11C010DF1020002F0A2FDB2
:100620000B2204F10F010DF10A0002F06FF900A88E
:1006300002F07CFF06B010BD10B5044684B094F8FB
:100640003A0030B304F12F0101A802F08BFD032022
:100650008DF80C00DFF8A80390F83A10C38C0091D5
:1006600001A9228F2046FFF7A9FDDC2818BFDD284D
:100670000BD0E42818BFF32807D0DE2818BFDF28E6
:1006800003D0E82818BFDB2803D10146204601F03B
:10069000FDF804B010BD00002DE9F84304464FF00A
:1006A0000008E72502F07CFDDFF8BC67376800F042
:1006B000010080F0010902E0B84657F8087C97B1C4
:1006C000787E0006F8D5387D012802BF97F83D00F6
:1006D00021798842F0D142463946304602F09EFAEE
:1006E000B07A401EB072B9F1000F18BF02F054FD8D
:1006F0003FB13846FFF770FEF021384601F0C6F8EA
:10070000002529462046BDE8F44301F0BFB830B5C6
:10071000044685B06078F32818BFDF2827D0E82882
:1007200018BFDB2823D0204600F026F805001DD195
:10073000207CD8B104F11101092000F0DCF9A8B146
:1007400002218DF80C104FF6FF72ADF80420A17A4B
:10075000009101A92389FFF731FD0546F32D18BF4C
:10076000DF2D03D0E82D18BFDB2D03D165702046A7
:1007700000F06EF805B030BD70B504460025A07AD3
:100780000B38122828BFE825207B1028A8BFE825B1
:1007900001DA0F2805D0DFF8C017097A090758BF1A
:1007A000E825617B884202D20F2918BFE8259448CA
:1007B000408D4FF6FF71884208BFEC25DFF8946941
:1007C000242002F0B4FB306120B12422211D02F06C
:1007D0009DF800E01A25284670BD000070B504465B
:1007E0008748217ADFF8706700F20305A972617A01
:1007F00080F82C10E17AC170A07A707303F023F8AE
:10080000707B38B1211D502003F0D2F9A11DE120E9
:1008100003F0CEF9DFF8C403012180F82010A87A94
:100820000F2814BF01200020DFF8285928750B225B
:1008300004F10D0105F1150002F068F804F118014A
:1008400005F12000BDE870400B2202F05FB8000007
:1008500010B50446607820B9DFF8F8080069FFF7A2
:10086000BDFF2C2020702046BDE8104001F050B89C
:1008700010B5DFF8E0180446086918B100220A61D3
:1008800002F0F0FB082020702046BDE8104002F086
:100890004DBEDFF8C018D148097D90F8200081F0E6
:1008A0000101084200D1704780B55548C27890F8E0
:1008B0002C10407BFFF720FD00281CBFBDE8024044
:1008C00000F04CBB01BD2DE9F04F804689B098F88F
:1008D0000E00012408F20E06400758D5B6F82890FD
:1008E00008F11C0A02F05CFC00F0010080F0010B32
:1008F000DFF87405076800250AE03D46687E40F091
:1009000010006876287E40F08000287657F8087C32
:100910009FB1787E0006F9D57A684946504601F0C5
:1009200083F90028F2D0002DE7D0287D012804D1DA
:100930006868017841F010010170BBF1000F18BF29
:1009400002F02AFC15B100F091FA20E0DFF8A80CC3
:10095000007920B1B07D022808BF002417D00B22F7
:1009600008F10F0106A801F0D1FF2548408D4FF690
:10097000FE718842ACBF0321022106A8019008F154
:100980001C02302000900120338D01F029FA102044
:100990008DF8080008F11C010DF10A0002F0BCFB03
:1009A000308DADF814008DF8164002A802F0BEFD9F
:1009B00009B0BDE8F08F0000DFF89C05407B00B96E
:1009C000704700B500F089BEDFF88C050FF23401E6
:1009D00041620FF2380181620FF24801C1620FF2E9
:1009E00054010166DFF88C1C8163DFF88C1C4166C2
:1009F000DFF82C1D8166018941F0020101817047F9
:100A0000AC4900200F07200051082000D905200024
:100A10009305200093082000C708200071082000DB
:100A20002D04200039062000990620000906200028
:100A3000B909200003047104020460041104700465
:100A400002040204010402041004610400041404FA
:100A50006304730472046204430400041304060470
:100A60000004000404041204000400040004000450
:100A70005104640000040004000444040004000461
:100A800000040004650400043504810464000504C6
:100A9000000483040004000002460146032000F025
:100AA0009BBF02460146052000F096BF0146082084
:100AB00000F055BF10B582B0DFF8AC4306E0204629
:100AC00002F079F8009000A801F05DF82068002895
:100AD000F5D1606838B1201D02F06DF8009000A8D3
:100AE00001F051F8F5E72060A072E07220730FF278
:100AF0008560A06113BD38B504460FF27C60255CAB
:100B0000284601F05FFF20B12918416000210172E1
:100B100032BD022001F056FF58B10FF28061615CD6
:100B200001701A2141700146DFF82C04007B01F0AE
:100B300076FF002032BD821DD2B2C90711D50A212D
:100B400092FBF1F101EB8103A2EB4301C9B241B188
:100B50000A32521AD2B20529A4BF0A32D2B20B32DB
:100B6000D2B21328ACBF142006208018C0B20930BE
:100B70000A2190FBF1F0C0B2704780B5DFF8D803CE
:100B8000007A800706D502F003FE401E8041C04374
:100B9000C00F02BD002002BDDFF8BC03007A800751
:100BA0000FD5B148807A50B90C48406C48B1407EAE
:100BB00000F08001481E8041C043C00F70470120F3
:100BC000704700207047A849DFF82C2A097B9278EB
:100BD000914238BF01F0F6BE0020704780400020EF
:100BE00080B500F0D0FF002002BD11B581B0007BC0
:100BF00020B1012828D0032829D03AE0DFF80C4D95
:100C0000607B0F281EBFD449887A032802D0019840
:100C1000C96E8847019894F83A108173142101989D
:100C20000170914C0199201D01F0A2FF02F0B8FA69
:100C3000217B491C217308B902F0AEFA2021C64875
:100C4000007B02F042F813BD01981521E8E70198F6
:100C5000007A70B101994B685B1C4B6013F8012D51
:100C60004A730199019A497BD27D32B109B10A29AF
:100C700012DB01A800F087FF13BD0A0008D00A2A82
:100C800006DA0FF20051511811F8011C884203D006
:100C9000082A08BF0828ECD10199401E0872019863
:100CA0000199407B0A30087001980199407B401CF3
:100CB0004873B6E7A848806F010018BF00470020BE
:100CC000704738B504460120207504F1140104F181
:100CD0003C0042884A800279CA7142790A7204F162
:100CE0003002C07908732046CB8C94F83C1000F099
:100CF000D3FF050004BF204600F030F9284632BD7E
:100D00009548807A032801D0012070472020704741
:100D100069172000417E41F0010141767047017D55
:100D2000027E012904D113075CBF417800F0AEBDFB
:100D3000530604D5DFF89C1C407809680847012950
:100D400003D1120748BF30210BD442781B2A08BFB9
:100D5000222106D0002A0CBF0FF234420FF23C428F
:100D6000895C017001467C48007B01F058BE38B5B3
:100D7000DFF8084D0546606C002872D025B11B2DA8
:100D800005D1017D052952D00021417051E0E92DA6
:100D900026D1807E30B902F009FD18B1606C807DEB
:100DA000400726D5606C817E002941D0827D5207A4
:100DB00005D4491E8176BDE8314003F0CDB8017EEF
:100DC00001F07F010176606C017D032903D1417E32
:100DD00041F0040141766049606C896E88472BE0E0
:100DE000E12D1CD102F0E2FC08B3606C807D40076D
:100DF0001DD4DFF8180B616C00F12202927C8A7618
:100E0000616C496890F822208A7090F82210491C81
:100E100080F822100120BDE8324002F082BF1C2D74
:100E200005D14D49C96F88470020606431BD606CB1
:100E30004570606CFFF773FF606C807D000609D51C
:100E4000DFF8C80A00F22205287E02F078FDE87D6E
:100E500002F025FD002060641021BDE8344000F060
:100E600085BC31BD254B0020844B00202DE9F0418D
:100E7000002602F095F900F00100DFF8004C80F048
:100E80000108606C002848D13348406F8047DFF884
:100E9000585D2F6840F0100002E03E4657F8087C8D
:100EA000002F3AD0797E01408142F6D13246394650
:100EB000284601F0B3FE6764787E000634D4E87AF1
:100EC000401EE872B8F1000F18BF02F065F9666CB9
:100ED000F18A307AFFF72FFE2881B07D000606D513
:100EE000F07E02F02CFD606C007F02F0D8FC606C9C
:100EF00000F21601C08AC00522D5288900281CBF2F
:100F00008A7A002A14D092FBF0F0C872606C017AE1
:100F10001329B4BF002102210EE0B8F1000F19D04F
:100F2000BDE8F04102F038B9A87A401EA872C9E7BE
:100F30000120C8720121606C80F82210032005E0B6
:100F40008878400800F0010080F00100BDE8F04121
:100F500002F0E7BEBDE8F0810040002070B5DFF888
:100F60008C5C04466868A04204BF00206860207E54
:100F7000000706D4207D012803D1DFF87C06027823
:100F800002E0DFF874064278DFF8086D214630464B
:100F900001F066FEC0B1296F20468847A07D40075A
:100FA0000DD402F0FDF8F17A491CF17208B902F093
:100FB000F3F8E08AC0050DD4BDE8704056E7696ECD
:100FC0002046BDE870400847F12060702046BDE82B
:100FD0007040A4E670BD49E710B5DFF8101C098920
:100FE000044600208A0705D404F13802927952079A
:100FF00048BFE8206022114205D104F13801897907
:10100000890748BFE820217A7529A8BFE82004F1A4
:1010100038010979002902BF94F838100029F52019
:1010200004D010B92046FFF74CFE28B101462046F7
:10103000BDE8104000F02ABC10BD0000304B00207D
:101040000D21017002F072BA30B504468BB0002059
:1010500020706070DFF8A015E08F0978DFF8885BFA
:10106000420716D4EA7A8A4216D30C208DF814006F
:10107000069494F83D008DF81600E068079004F19E
:101080000C008188ADF82010817AC90649D500216D
:101090004DE0AA7A8A42E8D2C10510D594F84210F0
:1010A000052914DB0521084211D105F1100001F0DA
:1010B000D4FB94F8421005F1100001F0B8FBDFF802
:1010C0002C0B007B214601F0AAFC0BB030BD0C209C
:1010D0008DF80000019494F83D008DF80200E0685E
:1010E000029004F10C008188ADF80C10817AC906D9
:1010F00048BF002105D4DFF81418827B91F8341022
:10110000891A8DF80E10417C8DF80F10817C8DF8B6
:101110001010C07C8DF81100E8208DF8010000A8A7
:1011200014E0DFF8E817827B91F83410891A8DF803
:101130002210417C8DF82310817C8DF82410C07C16
:101140008DF82500F1208DF8150005A802F0EEF9C4
:101150000BB030BD104B002010B5044604F15C000C
:1011600080B201F02FFC18B1047200F15C01416003
:1011700010BD00007AE6000000464A4C444949434D
:1011800039513A0002040201010101090200000084
:10119000303016181920231A1C1E30003030171852
:1011A0001921301B1D1F3000DFF8280C002180F8AA
:1011B0005C1080F85F1002220FF2AD51C1633C3029
:1011C00001610271012101757047DFF8400790F855
:1011D000350000EB40010901DFF8FC0B01F027BBF3
:1011E00030B5DFF82847607B93B00F2807D02E205A
:1011F0008DF8000000A800F08BFB13B030BDDFF8C5
:10120000D45B05F1340001F028FB608E1421B0FBA3
:10121000F1F105F1340001F00AFB13B030BD00001C
:10122000C840002030B5044683B06578002D4DD10C
:1012300094F83A0002281CBF0328E82594F82F00F0
:101240000B38122828BFE82541D2002D3ED104F1E9
:101250002F01E12002F0ACFC04F13C01502002F02F
:10126000A7FC94F83A10DFF8A406022902D1618E97
:10127000018407E04FF6FE710184163004F132015B
:1012800001F070FF0B2204F12401DFF8500B01F094
:101290003DFB0120E08204F132010220207500A80C
:1012A00001F03AFF6068A38F401E606000AA94F8C6
:1012B0003E1001708321207A401C2072204600F0ED
:1012C000EBFC050004BF2046FFF748FE2DB165701A
:1012D00017202070204600F01BFB03B030BD10B576
:1012E000DFF8F04A94F85F0086B0A0B9012084F8D6
:1012F0005F0002F081FF02A800F065FC04F15400D9
:10130000019002AA012000900321DFF80006C38C9F
:10131000052000F065FD06B010BD10B5044682B092
:10132000012002F082FF2078202804BFEB206070AB
:10133000DFF80C0C90F85F104A0744BF01F0FB0186
:1013400080F85F1090F85F108A070DD501F0FD015D
:1013500080F85F100A2160788DF801008DF8001088
:1013600000A802F0E3F813BD2A202070204600F008
:10137000CFFA13BD70B5054686B0012002F055FFC7
:10138000DFF8BC4B04F1340001F067FA04F14400CB
:1013900001F063FA68680178427801EB0221ADF848
:1013A0000410867846B901A9532002F001FC05F12A
:1013B0001C014A2002F0FCFB0B2205F10F0104F195
:1013C000540001F0A3FABDF804008DF80960022171
:1013D0008DF808100EB14FF6FF70ADF80A000B2221
:1013E00004F1540103A801F091FA02A802F09EF85A
:1013F00094F85F00800708D568788DF801000A210D
:101400008DF8001000A802F091F8002084F85F0029
:1014100006B070BD10B5044682B0EB206070DFF8F6
:10142000200B90F85F00800708D50A208DF8000097
:10143000EB208DF8010000A802F078F8204600F0BB
:1014400001F813BD30B5054685B0012002F0EDFE70
:10145000DFF8EC4A04F1340001F0FFF904F1440034
:1014600001F0FBF9002084F85C0084F85F000B2297
:1014700002208DF8000004F1540168788DF8010015
:101480004FF6FF70ADF8020001A801F03FFA00A886
:1014900002F04CF805B030BD10B50446FFF7BAFFB6
:1014A000D9E010B5044682B0012002F0BEFE207AD9
:1014B000002814BF0020EB206070DFF8840A90F849
:1014C0005F104A0744BF01F0FB0180F85F1090F8FD
:1014D0005F108A070DD501F0FD0180F85F100A2129
:1014E00060788DF801008DF8001000A802F01EF859
:1014F00008E0C80706D52A202070EB20607020463F
:1015000000F006FA0D202070204602F00FF813BDFF
:101510001CB50446DFF8BC0890F85F1041F00201EA
:1015200080F85F10012002F067FE607898B9DFF85C
:10153000DC03408D4FF6FE718842ACBF03210221CF
:1015400004F110000190221D012000900520E38984
:1015500000F046FC6070607838B18DF801000A2117
:101560008DF8001000A801F0E1FF13BD10B504468E
:1015700082B0012002F059FE2078202804BFEB2021
:101580006070DFF8BC0990F85F104A0744BF01F0B3
:10159000FB0180F85F1043E038B50446012002F0FB
:1015A00044FEDFF89C5905F1340001F056F9207A29
:1015B000002814BF0020EB20607095F85F00410701
:1015C00044BF00F0FB0085F85F0095F85F008107DD
:1015D0000CD500F0FD0085F85F000A2160788DF8D9
:1015E00001008DF8001000A801F0A0FF0D20207070
:1015F000204601F09BFF31BD7013220010B5044658
:1016000082B0012002F011FEEB206070DFF8C40709
:1016100090F85F104A0744BF01F0FB0180F85F10AB
:1016200090F85F108A070CD501F0FD0180F85F107B
:101630000A2160788DF801008DF8001000A801F0F3
:1016400075FF13BD10B50446DFF8EC0B01F005F98A
:101650002046FFF7D3FF2046BDE8104000F074BDE0
:1016600010B50446DFF8D00B01F0F7F82046BDE8CE
:101670001040C3E707012000E904200010B504462C
:1016800086B004F11C01DFF8640C01F021FD08B301
:1016900009208DF80000EF208DF8010060680178C6
:1016A000427801EB0221ADF8021000798DF80400B8
:1016B000207A082806BF6068C07900208DF80500F0
:1016C0000B2204F10F010DF1060001F01FF900A833
:1016D00001F02CFF06B010BD00B585B009208DF8D3
:1016E0000000EE208DF8010000A801F01FFF05B0FA
:1016F00000BDDFF8F8040FF28001C1610FF2B00104
:1017000001620FF2C00141650FF21C118165DFF823
:10171000E01B4163018941F0010101817047000034
:101720004B05200002460146022055E101460620F5
:1017300015E110B5DFF8B444206882B010B120463E
:1017400000F021FA0020A072DFF8D00B006848B149
:1017500002E000A800F017FA207B01F0A2F9009047
:101760000028F6D113BD00004FEA0001DFF87C0429
:10177000007B01F0AABA00002512200011152000FC
:10178000DF1220001B132000A314200045142000AA
:10179000151420006D15200099152000FD1520005E
:1017A0006116200075132000E1112000CB112000EC
:1017B0009914200045162000B12520007D16200038
:1017C000D91620000101710101010101110101017E
:1017D0003101010101018001100161013B00140090
:1017E00063017301720162014301000113010601EB
:1017F0003D0135000401120100010001000100015A
:1018000004010401330133013C014401320136007B
:1018100000010001650100013500810100010501A1
:1018200082018301000100000302710230016002A5
:101830001102700201020202020280021002610221
:101840003A00410063027302720262024302000224
:101850001302380000020002040212020002000219
:101860000002000204020402370037003C02440276
:101870000002390000020002650200023502810206
:1018800000020502820283020002000000B585B05A
:1018900002780FF22C73D25C8DF800200B2A00D155
:1018A00050E352B30C2A23D11A2902D1002001900F
:1018B0001EE0019090F83D208DF80220C26802924F
:1018C000028AADF80C20827DD20648BF002204D4E3
:1018D0000E4A837E92F83420D21A8DF80E20427F71
:1018E0008DF80F20827F8DF81020C07F8DF81100B9
:1018F0008DF8011000A801F019FE05B000BDBB482D
:10190000817A481E8041C00F70470000AC4900201A
:1019100018B4B6498A7A037801EB820203F07F0398
:10192000126D037002EB43035B7801EB8304246DBB
:1019300004B18B72037812F81320140901EB8401AF
:10194000096921B90B2B08DA14BC18219EE702F0B3
:101950000F0251F8221014BC084711BC7047E0B5C3
:1019600005460FF2F80088B0285C0E4601F02AF810
:10197000070010D03D700020787031460FF2E8006B
:101980002A5C381D00F0C2FF9848007B394601F000
:1019900046F808B0E0BD0FF228608DF80050285CD2
:1019A0008DF804000B2807D11A208DF8010000A83B
:1019B00000F01FFB08B0E0BD48B10C2804BF0020B8
:1019C00002901A208DF8050001A801F0AFFD08B0C3
:1019D000E0BD000098410020F0B507460FF27C0002
:1019E00087B03C5C0D46204600F0ECFF060016D0A8
:1019F0003770002070702946A01970600020307286
:101A00000FF264003A5C06F1240000F07FFF774893
:101A1000007B314601F003F8002007B0F0BD0FF263
:101A2000A0508DF80070385C8DF804000B2806D1AA
:101A30001A208DF8010000A800F0DBFA0AE048B196
:101A40000C2804BF002002901A208DF8050001A880
:101A500001F06CFD1A2007B0F0BD000000055957D9
:101A6000515C1C202807020000011C181A18181CC1
:101A7000240300005D490873704700008040002087
:101A800070B50C4682B0A00617D41CE001F088FBAC
:101A9000297B491E297308B901F07EFB3078534D2C
:101AA0008DF800006E603046FFF732FF9DF80000B1
:101AB00015281CBF281D00F066F84B4D281D01F0AD
:101AC0007AF80600E2D12004484D06D40AE06860A6
:101AD000FFF71EFF281D00F056F8287B00F0E1FFFD
:101AE0000028F4D1E00605D52D208DF8000000A8CF
:101AF000FFF70EFFE00705D524208DF8000000A8B1
:101B0000FFF706FFA00705D525208DF8000000A8E7
:101B1000FFF7FEFE600705D526208DF8000000A81F
:101B2000FFF7F6FE200705D528208DF8000000A855
:101B3000FFF7EEFE600608D500208DF801002C208E
:101B40008DF8000000A8FFF7E3FE200608D500206E
:101B50008DF801002F208DF8000000A8FFF7D8FEB7
:101B6000286870B101F01CFB2C680021296008B9BD
:101B700001F012FB6C602046FFF7CAFE281D00F042
:101B800002F8002076BD38B5040008BF02F014FC4E
:101B900001F006FB00F00100216880F0010559B159
:101BA000124A5368A1F108008B4204BF0021516022
:101BB0000021216001F056FA002D1CBFBDE8314024
:101BC00001F0EABA31BDDFF8A41B0A8C4FF6FE73B0
:101BD0009A4204BF163101F09FBA02220272098CA8
:101BE0000180704700000000844B0020004000206E
:101BF00042784B78C2F38102C3F381039A4211D138
:101C0000022A09D142794B799A4202BF80798979B7
:101C1000884207D101207047032A03D1491D401D86
:101C200001F08ABA0020704770B55478067A0B46E6
:101C30000021C4F38104B44218D1022C10D154798C
:101C40009579008804EB0524A4B2A0420ED1D07887
:101C5000127900EB022080B2834207D1012105E016
:101C6000032C03D1511D01F067FA0146084670BDEF
:101C7000017ADFF8F82A022907D1118C0088814205
:101C800001D10120704700207047014602F1160083
:101C900001F01EBA844B00202DE9F84F154604468A
:101CA00000222F7ADFF8C48A994608064EBF4FF605
:101CB000FF7608F11400468A01F07F00A17D8906B5
:101CC0004CBF082100212176A17D49074CBF80210E
:101CD00010216176A17DC9064CBF002198F834100F
:101CE000A176E18ACB0748BF2022090748BF42F00E
:101CF00010026168237D491E022B07DB0B2B1CBFE2
:101D00005B1E01F8013942F0030200E01A4342EA87
:101D100080321FFA82FA022809D108F11400C28A1F
:101D2000120A01F80129C08A01F801090CE0032810
:101D300009D1A1F1070B08F13C01584601F012FA54
:101D4000ABF1010100E050B127B14E4508BF4AF0A8
:101D5000400A04D0301201F8010901F801694AEA89
:101D6000872086B2022F07D12888000A01F80109CE
:101D7000288801F8010909E0032F06D1CF1F294661
:101D8000384601F0EFF9791E00E02FB14FEA192033
:101D900001F8010901F801994A1E207D28B998F837
:101DA0001430581C88F8140004E008F11400837BF8
:101DB0005D1C85730B70300A107002F8016D207A7B
:101DC00061680818801A2072626000206070BDE8A7
:101DD000F28F0000AC480020F048002000490020AD
:101DE0002DE9F84FDDF82CB00A9C8846074691464D
:101DF0009A461A265946FEF77EFE050019D0EC8257
:101E00002F750B22594605F1240000F07FFD534643
:101E10004A4641462846FFF73FFF060009D1FF1F0B
:101E2000012F03D8687E40F0200068762846FFF72F
:101E300095F83046BDE8F28F30B5044683B094F88B
:101E40003D10012001B10520251D04F130016882FB
:101E50000420287400A801F05FF96068EB8E401E32
:101E6000606000AA94F83C10017003212879401C9E
:101E700028712046FFF710FF050004BF2046FFF73A
:101E80006DF8284603B030BD70B5044605200D46F8
:101E900020702E1D95F83D00A0706068F16A4161C8
:101EA00005F11C0101F038F96068718E41810B2247
:101EB00095F83A104174002160680176C17305F10C
:101EC0000F016068193000F021FD6068B17A8173FC
:101ED0006868616810F8012B8A8110F8013B42EABA
:101EE00003228A8110F8012BD3095B1E9B41DB433F
:101EF000DB0F0B7402F007014A1E9241D24301EB43
:101F0000410101EBD271C9B2081810F8011B21720E
:101F1000E060217A01F00702490801F0380101EB85
:101F200042010818606131796A688B18834227BFC3
:101F3000081A101800202072207470BD704700002D
:101F4000AC480020417000F054F805B000BD00B569
:101F500085B001780FF26802895C8DF800100B29BA
:101F600001D11921EEE739B30C291FD1019090F866
:101F70003D108DF80210C1680291018AADF80C1075
:101F8000817DC90648BF002105D4DFF81C19827E77
:101F900091F83410891A8DF80E10417F8DF80F10CA
:101FA000817F8DF81010C07F8DF8110019208DF8F9
:101FB000010000A801F0BAFA05B000BD0000000061
:101FC0000C0E020B040B0A0708000F0038B5DFF8EF
:101FD000DC580446286828B11921FFF757FC284629
:101FE000FFF7D1FD6868A04204BF002068602C6044
:101FF00031BD10B504468AB02078032808D00528E2
:1020000008D0182804D01E2818BF1F2802D018E0B6
:10201000002000E001208DF8180004F12F0103A832
:1020200001F0A0F803208DF81400DFF87C08418D42
:10203000C08CADF80210ADF8160002218DF80A1020
:102040001CE002208DF8180004F11C0103A801F027
:1020500089F803208DF814000B22DFF84C08418D1D
:10206000C08CADF80210ADF8160002218DF80A10F0
:102070000DF1190004F10F0100F048FC0B208DF860
:1020800000000B2260788DF8010004F10F010DF1C2
:10209000190000F03BFC00A801F048FA0AB010BD9E
:1020A00038B5044665789DB9DFF8C016608FC98CD5
:1020B000884218BFE82504F13000FFF7D9FD88B148
:1020C000002084F83D001DB92046FFF7B5FE054607
:1020D0003DB16570192020702046BDE83240FFF701
:1020E00017BC31BDDFF8C81794F83D0091F82010F7
:1020F00080F001000843E6D1E825EAE710B586B094
:1021000004218DF8041041788DF80510418FADF849
:10211000101000F130010DF1060000F0FDFF0DF18F
:102120000600FFF7A5FD50B14FF6FF74ADF8004073
:1021300000A9532001F03CFDDFF86C07048401A8DE
:1021400001F0F4F906B010BD10B588B004460320C4
:102150008DF8040004F11C010DF1060001F002F8F5
:10216000606800788DF80E000B2204F10F010DF16C
:102170000F0000F0CBFB04F11C00FFF779FD50B11C
:102180004FF6FF74ADF8004000A9532001F010FD98
:10219000DFF81407048401A801F0C8F908B010BDE5
:1021A00070B5054696B06868DFF8C04540784006CF
:1021B00011D5A61CE98EB08C88420CD1DFF8EC0654
:1021C000407B08B309208DF82000EE208DF8210017
:1021D00008A801F0ABF90DA80390294602A8FFF763
:1021E00053FE2B208DF8080002A8FFF791FBA07882
:1021F00010B19DF8180028B105208DF8080002A83C
:1022000001F094F916B070BD94F830000028E2D0C7
:1022100005F11C00FFF72CFD0028DCD105F10F00B3
:1022200001900120009004F11602B38C03210620D6
:10223000FFF7D6FD16B070BDE0480020F8B50546A2
:1022400000F0AEFF00F0010080F001040DB101F0DC
:102250005FFC02F0D2F8DFF8145505F22607387D4E
:1022600001F06DFBF87C01F01AFBDFF84066707B33
:1022700001F0E9FAE88C01F0F6FAB88801F0FDFA0D
:1022800005F13C0001F003FB706B010018BF8047B3
:10229000B06B010018BF8047F06B010018BF80478A
:1022A000306C010018BF8047706C010018BF804778
:1022B000B06C010018BF8047F06C010018BF804768
:1022C00000F0E7F9FFF735FADFF8E80500210170C3
:1022D000FEF7F0FB0020707305F12901522001F098
:1022E00067FC0CB100F058FF0020F2BDC24900208D
:1022F000A911200001460920FFF731BBDFF8AC052A
:102300000FF2C05101610FF2D85141610FF2E45157
:1023100081610021018102F062B800008C4D002033
:102320007047072202700A7A82708A7AC2704A68FD
:10233000426000220272C969C160704738B5044624
:10234000DFF8745500206870207A0628A4BFE820C2
:102350006870607A0F2804DB207A032804D0E82014
:102360006870207A032806D1DFF84005007AC0079C
:102370005CBFE820687021462846FFF7D2FF6168FD
:1023800005F11800890A81600B22617A0173E17AF4
:102390004173217B8173617BC173A17B01740A212D
:1023A0004174DFF8C81391F83A108174DFF80C1506
:1023B000A9610421017105F12B0004F10F0100F066
:1023C000A5FA6878002804BF607800280CD1681C42
:1023D000407808B1EA21697001F001FB26202070E5
:1023E000042001F0EEFE01E0292020702046BDE827
:1023F0003240FFF78DBAF0B5DFF8BC546E1C0446CE
:10240000707885B005F10C0760B9787F0A2809D08B
:1024100001F050FB797FEA68891801F80B0CF0791C
:10242000401CF0717869797F40087861491C7977A0
:10243000C00702D4C9B21D29F4DBC9B21D292DD0B1
:1024400005F12901E12001F0B3FB02208DF8100015
:102450004FF6FF737078ADF80830002818BF0228D7
:1024600004D1204600F021F805B0F0BD012807BFD7
:10247000082080210720832105F12B0201920022F0
:10248000009202AAFFF7ACFCDB2818BFE52804D0B5
:10249000F3281CBFDF28E82805D1687029202070A8
:1024A0002046FFF735FA05B0F0BD38B5DFF808442F
:1024B000616894F82920012000FA02F291436160DA
:1024C000A178032906D1A94890F8350000EB400116
:1024D0000D0109E094F824209040401C00EB4002DC
:1024E000150109B901F0E2FA00F0AFFF401960618F
:1024F00004F11000BDE83440DFF8C41376E12DE9A3
:10250000F043DFF8B463751C804668788FB002280A
:102510001CBF0128052840D100207070414600A84A
:102520000A9009A8FFF7B0FC06F10C07EC79787E59
:10253000844220D2D6F80C900DE0B9F80A00BDF81C
:102540000A10884204D100A9484600F0C1FD90B9A4
:10255000641E09F12409E4B2002CEED1E87900EB05
:10256000C003F068242200A900EB830000F0CEF93C
:10257000E879401CE871DFF83003807820B19DF8DD
:10258000340008B9787E10B909A800F0CFFF787E32
:1025900058B1E979814208D101E0E8207070292022
:1025A00088F800004046FFF7B3F90FB0BDE8F083AC
:1025B00038B5044694F82400032804BF94F82E008C
:1025C00003282ED104F11C014A2001F0F1FA6068C1
:1025D0000178427801EB0221ADF80010851C00A9BA
:1025E000502001F0E5FA2878697800EB0120ADF879
:1025F0000000AD1C00A94B2001F0DAFA2946E120C9
:1026000001F0D6FA681C0178407801EB0020ADF8A3
:10261000000000A9532001F0CBFADFF89C02002152
:1026200002E0DFF89402E821417029202070204662
:10263000FFF76EF931BD10B5DFF87C4204F11000F0
:1026400000F00BF901F0FCF9042001F0EEFDA07898
:10265000032804BF6078002804D004F12A01E12097
:1026600001F0A6FA2046BDE8104000F05FBF00B5BB
:1026700085B0014600A8FFF754FEFC208DF801004C
:1026800000A800F053FF05B000BD01460720FFF78A
:1026900066B9874800218164C1644FF47F010165F8
:1026A000416500218165704710B5814C0020A0650F
:1026B000A06C68B1216D4068884209DA00F0C5FE5F
:1026C000A16C4A688242B8BF02464A60A06CA0650D
:1026D000E06C38B1A16D19B1426849688A4203DAE9
:1026E000A06501E0A06D40B1A06D216D40688842F9
:1026F000BCBFBDE8104000F0D8BEBDE8104000F0FF
:10270000FEBEF8B500F04CFD00F00100684D80F011
:102710000104A86D18B3296D4068814203DA01F005
:102720004BFEA86DD8B100F090FEA96D49688842B3
:1027300015D3002948BF01F03FFEAE6D304600F0D2
:102740008CF8377BB6680CB100F026FD3846B047F0
:1027500000F026FD00F0010080F00104E1E7002C0C
:102760001CBFBDE8F14000F017BDF1BDAC49002031
:1027700038B504460D460EE04D496868896D20184D
:102780008D4202D1002848BF00206860002848BF61
:1027900001F012FE2D68002DEED131BD70B500F0B4
:1027A000FFFC00F00100424DEE6CA96C80F00104CA
:1027B000286D4042FFF7DCFF06E0286D716881421A
:1027C000A4BF081A70603668002EF6D1686D296DB6
:1027D00081421CBF286500F01EFEFFF765FF002C3C
:1027E0001CBFBDE8704000F0D7BC70BD70B504469A
:1027F0000D4600F0D5FC00F0010080F001062968CC
:10280000284601E00846096819B162684B689A4297
:10281000F8DA046021602868A04208BFFFF744FF8F
:10282000002E1CBFBDE8704000F0B6BC70BD38B5CE
:1028300004460D4600F009FE40196060204659E646
:102840000A6801E011461A462AB113688242F9D19A
:102850000B60012070470020704770B5044600F0FF
:102860009FFC134EB16C00F0010080F0010506F1F1
:10287000480001E00846114621B10A68A142F9D199
:10288000026004E006F14C012046FFF7D9FFB06D6D
:10289000844208BFFFF708FF002D1CBFBDE8704051
:1028A00000F07ABC70BD0000AC4900200040002060
:1028B00080400020284E0020784A00206917200020
:1028C000C84000203D1F20004F1F2000CD1F2000CA
:1028D000D90F2000F31F2000D70F20004110200047
:1028E00021232000A1202000FD202000A121200084
:1028F000492120003D232000372620006F2620009C
:10290000F7232000FF242000AB24200030B4030074
:102910000C00180015006A1E002D04D025780570E3
:10292000641C401CF6E730BC704770B403001C0008
:102930000D001000421E002809D02000441C2E006B
:10294000751C00783678B042F3D0002000E00120FA
:1029500070BC704770B504000D0016003200EDB277
:102960002900200001F060FD70BD0178407811EB76
:10297000002080B27047C9B2022904D102784078A1
:1029800012EB002019E0C9B2032907D1027843787D
:1029900012EB0322807812EB00400EE0C9B204294A
:1029A0000AD10278437812EB0322837812EB0342B8
:1029B000C07812EB006000E00078704780B501F04D
:1029C00095FD02BD38B50400A4B2002C01D1002051
:1029D00010E014F1080080B200F0A9FA0500002D03
:1029E00007D000202860AC80FF20A87115F10800F6
:1029F00000E0002032BD38B50400002C01D10520D4
:102A00000CE014F8020CFF2801D0042006E0B4F119
:102A100008000500280000F025FB002032BD38B575
:102A200004000D00002229002000C0B200F001F8CF
:102A300032BD70B504000D001600002D01D1052037
:102A40002EE0DFF86C040078E4B2844204D328005E
:102A5000FFF7D1FF032023E055F8080C002803D12D
:102A600015F8020CFF2804D02800FFF7C4FF05204A
:102A700016E005F8024CF6B2012E05D12900DFF868
:102A8000340400F0B7F804E02900DFF8280400F06F
:102A90006FF84FF400412000C0B200F016F900209A
:102AA00070BD2DE9F04104000026002700F078FBFE
:102AB00010F0010090F001008046DFF8F803006894
:102AC0000500002D0FD015F8020CE4B2A04204D18D
:102AD000002F01D12F0000E005E0002F00D12E00D3
:102AE00055F8085CEDE7002D06D04FF400412000BA
:102AF000C0B200F0EAF805E04FF400412000C0B297
:102B000000F006F9002F05D032003900DFF8A403E9
:102B100000F084F85FFA88F8B8F1000F01D000F0F7
:102B20003BFB3800BDE8F081F8B504000D0000F073
:102B300037FB10F0010090F001000700DFF874038C
:102B400000680600002E0BD016F8020CE4B2A0427A
:102B500003D13078EDB2A84202D056F8086CF1E704
:102B6000FFB2002F01D000F017FB3000F2BD0000D3
:102B7000F8B504000D0000F013FB10F0010090F018
:102B800001000700002045F8080C2068002801D14A
:102B900025600AE02068060056F8080C002802D0DC
:102BA00056F8086CF8E746F8085CFFB2002F01D031
:102BB00000F0F2FAF1BD70B50400002500F0F0FA63
:102BC00010F0010090F001000600206800280AD0F3
:102BD0002068050055F8080C2060002045F8080C16
:102BE000FF2005F8020CF6B2002E01D000F0D4FA56
:102BF000280070BD70B504000D0000F0D1FA10F08F
:102C0000010090F001000600206845F8080C2560DE
:102C1000F6B2002E01D000F0BFFA70BDF8B5040086
:102C20000D00160000F0BCFA10F0010090F0010059
:102C300007002068854203D155F8080C206003E0A6
:102C400055F8080C46F8080C002045F8080CFF2041
:102C500005F8020CFFB2002F01D000F09DFAF1BD83
:102C60002DE9F84304000D0016005FF0000800F0A5
:102C700097FA10F0010090F00100814620680028CA
:102C800003D125600120804614E020680700761EED
:102C900057F8080C002806D0F6B2002E03D057F8DB
:102CA000087C761EF4E7F6B2002E03D047F8085CE5
:102CB000012080465FFA89F9B9F1000F01D000F0D8
:102CC0006BFA4046C0B2BDE8F28370B504000D0057
:102CD00077480078E4B2844218D200F061FA10F02C
:102CE000010090F001000600E4B27348006830F87B
:102CF00014002843E4B27049096821F81400F6B2C0
:102D0000002E01D000F048FA002000E0032070BD42
:102D100070B504000D0066480078E4B2844218D211
:102D200000F03EFA10F0010090F001000600E4B25D
:102D30006148006830F81400A843E4B25E490968AD
:102D400021F81400F6B2002E01D000F025FA002080
:102D500000E0032070BD10B50400E4B2FF2C03D1E5
:102D600000F01AFA002000E0072010BD10B50400A2
:102D7000E4B2FF2C03D100F013FA002000E007209A
:102D800010BD80B500F09EF84A480021016001F0B6
:102D9000B1FB01F033FD01F03DFD00F0A9F800208A
:102DA00002BD80B500F001F8FCE770B5002401F029
:102DB000ADFDE4B24048006830F81400002806D1A8
:102DC000641C20003A490978C0B28842F1D33848DF
:102DD0000078E4B284423DD200F0E2F910F0010044
:102DE00090F001000600E4B23348006830F81400A7
:102DF0000500E4B230480068002120F81410F6B253
:102E0000002E01D000F0C8F92C480470290089B2C6
:102E10002000C0B2E4B22A4A52F8242090470500AC
:102E20002648FF21017000F0BBF910F0010090F07E
:102E300001000600E4B22048006830F8140028437E
:102E4000E4B21D49096821F81400F6B2002E01D041
:102E500000F0A2F970BD0170401C0A0A0270401C0B
:102E60000A0C0270401C0A0E0270401C7047017070
:102E7000401C0A0A0270401C0A0C0270401C704779
:102E800010B40300002B01D100200FE0002004004B
:102E9000E4B2D2B2944208D2E4B2E05CC9B2884251
:102EA00001D0002002E0641CF2E7012010BC704752
:102EB00096872100784D00208C4D0020B7410020DE
:102EC000841222007C48002101807C487C490160FA
:102ED0007A4800684FF427710180794848F204016C
:102EE000A0F89C12764841F25C51A0F8A0127047FD
:102EF00038B5012000F01BF80500002D01D101F0CC
:102F00005BFA00F04DF910F0010090F001000400B0
:102F1000281F6A490860280000F0A4F869480121C8
:102F20000170E4B2002C01D000F036F931BD2DE97A
:102F3000F0410700002400263F1DBFB20421B7FB6B
:102F4000F1F000FB1170C0B2002802D0391DC0B2F0
:102F50000F1A00F025F910F0010090F001000500B3
:102F600058480078002802D0BFB2112F03D253482E
:102F70000068804601E054488046D8F80000C0F35D
:102F8000C030002802D00020060020E0F6B2002E5B
:102F900012D02068C10BC903D8F8002010184004D3
:102FA000400C0843206020684004400C80B2BFB24F
:102FB000B8420CD3A04618E0D8F800004004400CFA
:102FC00080B2BFB2B84210D2012006004446D8F801
:102FD00000004004400C10EB0808B8F8000000287E
:102FE00002D10020804600E0C7E7B8F1000F28D0EA
:102FF000D8F800004004400CC01B80B2082808D359
:10300000BFB217EB0801088057F40042A8F800206F
:1030100005E0D8F8001051F40041C8F80010294923
:10302000097800290BD025490968414507D1D8F80E
:1030300000104904490C11EB0801204A116018F1F5
:103040000408EDB2002D01D000F0A6F80420B8FB72
:10305000F0F101FB1081002901D001F0ADF94046EB
:10306000BDE8F08170B50400251F1548844202D3E5
:103070001648844201D301F09FF92868C0F3C0309C
:10308000002801D101F098F900F08AF810F0010051
:1030900090F001000600286830F4004028600748DE
:1030A0000068854201D205480560F6B2002E01D0C5
:1030B00000F072F870BD0000A8660020AC6E002021
:1030C000AC4E0020554E00204C510020AC66002034
:1030D00038B504000D00207A297A884201D00020FA
:1030E00019E0207A002801D1002014E0207A02287B
:1030F00008D120882988884201D1012000E00020E1
:10310000C0B208E0207A032804D12900200000F092
:1031100013F800E0002032BD38B504000D00287A15
:103120002072207A032804D12900200000F01AF828
:1031300001E02888208031BD10B40200082003007F
:10314000DBB2002B0BD01000421C0C00611C00787D
:103150002478A04201D0002002E05B1EF0E70120AD
:1031600010BC704738B504000D000822290020006B
:10317000FFF7CCFB32BD50F8041B61B150F8042BB3
:10318000D30744BFA9F101039A18002342F8043B76
:10319000091FFAD1EFE7704780B501F0BFFB02E0ED
:1031A00080B501F0B7FB00B10120C0B202BD10B57F
:1031B0000FF22813820853F82220136800F003004E
:1031C000C000FF248440A34301FA00F018431060BC
:1031D00010BD3E49042803D1086840F4803022E045
:1031E000052803D1086840F400301CE0062803D10C
:1031F000086840F4802016E00F2805D134480168A3
:1032000041F002010160704710280DD3A0F11001B8
:103210000FF26C12490952F821101038012200F007
:103220001F0002FA00F0086070472849042803D103
:10323000086820F4803022E0052803D1086820F4D3
:1032400000301CE0062803D1086820F4802016E036
:103250000F2805D11E48016821F002010160704766
:1032600010280DD3A0F110010FF22812490952F8CD
:1032700021101038012200F01F0002FA00F008604F
:10328000704714490E2803D1086840F0006014E02C
:103290000F2803D1086840F000700EE010280DD30D
:1032A000A0F110010FF20012490952F82110103854
:1032B000012200F01F0002FA00F008607047064883
:1032C000016841F0010101607047000024ED00E059
:1032D00010E000E004ED00E098200D400000000048
:1032E00018ED00E01CED00E020ED00E000E400E05F
:1032F00004E400E008E400E00CE400E010E400E096
:1033000014E400E018E400E01CE400E020E400E045
:1033100024E400E028E400E02CE400E030E400E0F5
:1033200034E400E038E400E03CE400E040E400E0A5
:1033300044E400E048E400E04CE400E050E400E055
:1033400054E400E058E400E05CE400E060E400E005
:1033500064E400E068E400E06CE400E070E400E0B5
:1033600074E400E078E400E07CE400E080E400E065
:1033700084E400E088E400E08CE400E090E400E015
:1033800000E100E004E100E008E100E00CE100E021
:1033900010E100E080E100E084E100E088E100E08D
:1033A0008CE100E090E100E080E200E084E200E0F7
:1033B00088E200E08CE200E090E200E080B50020CE
:1033C00001F044FC5FF47F0000F025F853487FF0E3
:1033D000080101605248006850F008005049086038
:1033E0004E487FF0100101604D48006850F0100019
:1033F0004B49086001BD80B54948006830F01000B5
:10340000474908604648006830F0080044490860B1
:10341000FFF7D4FF01BD38B5040001F0C8FBA0429E
:1034200001D300F0C9FFFFF7BBFE10F0010090F0E0
:10343000010005003B480460200001F087FCEDB26C
:10344000002D01D0FFF7A8FE31BD38B5FFF7A8FE6B
:1034500010F0010090F00100040001F0A8FB05004D
:10346000E4B2002C01D0FFF797FE2E480068854299
:1034700001D3002000E0280032BD38B5FFF790FEF0
:1034800010F0010090F00100040001F0B9FB05000C
:10349000E4B2002C01D0FFF77FFE2248006885428D
:1034A00001D3002000E0280032BD38B504001D48DB
:1034B0000068844201D300F07FFFFFF771FE10F037
:1034C000010090F00100050017480460200001F0A1
:1034D000F6FB01F06CFB84420BD110487FF0100129
:1034E0000160EDB2002D01D0FFF756FEFFF709F99C
:1034F00004E0EDB2002D01D0FFF74EFE31BD704764
:1035000080B5FFF7FEF801BD80B501F008FDFFF7BB
:1035100045F901BD03480068704700000C88084069
:1035200008880840C44D0020C84D00202DE9F14313
:1035300082B002980578EDB2B048285CADF8000082
:10354000BDF80000002800F02181EDB20D2D1AD148
:1035500000A9532000F003FBBDF800004FF6FE71F8
:10356000884209D0BDF800004FF6FF71884203D0B1
:103570000298007A002803D102A8FEF704FB05E1B7
:103580000298040055E0EDB2052D08D1BDF8000009
:103590000299097C24310818ADF8000015E0EDB25D
:1035A000072D12D102988078002805D1BDF80000BF
:1035B0001B30ADF8000008E0BDF800000299097A60
:1035C000242202FB0100ADF80000BDF80000FFF767
:1035D000F9F90400002825D1EDB20C2D21D1029873
:1035E000406800281DD0FFF7DBFD10F0010090F0CF
:1035F000010006000298001DFEF7C5FABDF80000A4
:10360000FFF7E0F90400002805D1F6B2002E01D042
:10361000FFF7C2FDBAE0F6B2002E01D0FFF7BCFD05
:1036200000E0B3E0EDB275482A5C02992000FFF794
:103630006DF9EDB2052D12D12422616814F1180044
:10364000FFF764F914F118006060227C616960681A
:103650002430FFF75BF960682430606127E0EDB249
:10366000072D24D126006648006800281FD0644832
:103670000768634800210160B078002808D116F17E
:103680001000F0601B223900F068FFF73FF90BE0F3
:1036900016F11000F060307A242101FB00F23900AD
:1036A00016F11000FFF732F93800FFF7DBFC554840
:1036B0000068002805D02000524909688847002882
:1036C00059D1EDB20D2D40D102984068007810F02C
:1036D0000306029840680078C0F3830702984068A8
:1036E000407810F0E008F6B2022E0EDA4648807CF0
:1036F000FFB2874209D15FFA88F8B8F1000F04D110
:10370000029890F82400022803D002A8FEF73BFAA2
:103710003CE014F11C0919F11E0199F81F0000F09A
:1037200047F80298C08C4FF6FF7188421ED102986C
:1037300040688079022819DB200001F089FE00280A
:1037400002D002A8FEF71FFA20E0EDB20C2D0DD139
:10375000029840781A2809D026007068807DC0073A
:1037600004D516F10F01307C00F022F82100274823
:103770000078FFF754F9EDB20C2D07D1029840689C
:10378000002803D00298001DFEF7FDF9BDE8F7837D
:1037900080B51F480078002803D01D480078012814
:1037A00002D101F0F0FD00E0002002BD00207047D2
:1037B000184A1278002A1ED00A78C0B2322802DADB
:1037C0003223180004E0C0B26F2801DB6E2318001A
:1037D000104B1B78012B08D192B2C0B2B0F132036A
:1037E0005A433C2392FBF3F2FFE792B2FF2A01DD3A
:1037F000FF22FFE70A70704700000000101322004C
:10380000EC4D0020F04D0020D44700204A4E00200F
:10381000754E0020A04E002092480B210170924866
:10382000FF2101709148FF2101709148FF21017033
:10383000704780B500F004F900F03CF901BD80B597
:1038400001F074F902BD8B490968C0B2002801D0AB
:10385000012200E0002231F00201D2B251EA42011D
:10386000844A1160704780B2C1B2834A116080B24D
:10387000010A89B2814A1160704780B2C1B2804AA0
:10388000116080B2010A89B27E4A1160704710B59A
:103890000400082221007C4801F036FE10BD70B5FE
:1038A00004007A4E96F9000040B264B2A04202DAF7
:1038B0003078040007E064B296F9010040B2844217
:1038C00001DA70780400FFF76BFC10F0010090F053
:1038D000010005003078001B801CC0B2805D634988
:1038E0000870EDB2002D01D0FFF756FC00F003F890
:1038F0002000C0B270BD10B5FFF752FC10F00100FF
:1039000090F001000400594800785949097888422C
:103910000FD05F48007800280BD15E480078000681
:1039200007D453485149097801705B4850490978D8
:103930000160E4B2002C01D0FFF72EFC10BD38B5B9
:103940000400E4B20B2C02DBE4B21D2C01DB00F01E
:1039500033FDFFF725FC10F0010090F00100050099
:10396000404804704B480078002801D100F006F868
:10397000EDB2002D01D0FFF70FFC31BD10B5454869
:103980000078002801D000F017FDFFF709FC10F0C7
:10399000010090F0010004003248007832490978B3
:1039A000884216D030482F4909780170E4B2002CC3
:1039B00001D0FFF7F1FB00F0C0FC2B480078052197
:1039C00048432C383549086001F02BFE00F069FCB3
:1039D00004E0E4B2002C01D0FFF7DEFB10BD10B50F
:1039E00004002F480078002801D000F0E5FC2D48A5
:1039F0000078002801D000F0DFFCE4B2002C03D1F5
:103A00002848012101701AE0E4B2032C03D12548B3
:103A10000321017013E0E4B2052C07D0E4B2012CBD
:103A200004D0E4B2022C01D000F0C6FC1D480221F3
:103A300001701148FF2101601048FF21016010BD95
:103A4000184800210170184890F82600C0B20A49B1
:103A500008601548C08C80B2000A80B2074908602F
:103A600070470000804E00207F4E0020814E0020D5
:103A70007E4E002000860840C8850840CC8508405E
:103A8000D0850840D4850840A8850840AC122200A3
:103A9000844E00208F4E0020408608403C8608401F
:103AA000D6410020834E0020AC49002080B501F0B3
:103AB00015FA01BD38B501F01CFA493804002000A0
:103AC00040B200F004F805002800C0B232BD010089
:103AD00049B211F1570F03DA7FF05602110004E0EA
:103AE00049B20B2901DB0A22110049B211F1570238
:103AF000FF235A43612392FBF3F21000C0B27047D8
:103B000038B504000D00200040B2FFF7E0FF32BDE1
:103B100080B57B487B494C2202F0ACFAFFF78FFE60
:103B2000774981F82200FFF78AFE7549087501BDC3
:103B30000100C9B2402906DBC9B25E2903DAB1F13E
:103B40004000C0B20AE0C9B2E02906DBC9B2E629EA
:103B500003DA11F13E00C0B200E024207047F8B54E
:103B600004000D002000C0B2FFF7E2FF0600C0B263
:103B7000242801D1F4201AE0FFF712FB10F0010015
:103B800090F001000700F6B25F4810EB8600427823
:103B9000F6B25D4810F82600594941182800FEF792
:103BA000B5FEFFB2002F01D0FFF7F6FA0020F2BDFC
:103BB000F8B504000D00E4B2452C03D150488560EF
:103BC00000209CE02000C0B2FFF7B2FF0600C0B2A8
:103BD000242801D1F42092E0F6B24B4810EB860085
:103BE0008078002806D1F6B2474810EB8600C078EE
:103BF00000282CD0F6B2444810EB86008078F6B24C
:103C0000414911EB8601C978884201D1FB2076E059
:103C1000E4B2582C09D128888F2804DB288846F282
:103C2000B141884201DBE82069E02878F6B23649E4
:103C300011EB86018978884207D3F6B2324810EB3F
:103C40008600C0782978884201D2E82057E0FFF743
:103C5000A7FA10F0010090F001000700F6B22A4820
:103C600010EB860042782900F6B2274810F82600AB
:103C7000234BC018FEF74AFEFFB2002F01D0FFF71A
:103C80008BFAE4B2200050280CD0522814D05328CC
:103C90000DD0E02827D0E1281BD0E2281FD0E5284E
:103CA00027D02BE01648C08CFFF7DDFD26E0144836
:103CB000408DFFF7E2FD21E0114890F8290000282F
:103CC00003D0022000F07DFA02E0022000F0ADFAFD
:103CD00014E00B4890F83A00FFF731FE0EE00B4875
:103CE000FFF7D5FD0AE0064890F83900FFF7D7FD49
:103CF00004E00348297880F84810FFE70020F2BD6F
:103D0000AC4900208C112200FC102200E849002060
:103D1000DFF8600400210170DFF85C04002101700D
:103D2000704770B50400DFF84C040078002801D01B
:103D300000F042FBDFF83C0401210170DFF83C0495
:103D40000078002803D01D2000F0EEF9A5E0DFF890
:103D500030040470DFF828040078022802D102F051
:103D60001BFB42E0DFF818040078032802D100F0C2
:103D7000ABF83AE0DFF808040078002806D0DFF856
:103D800000040078012801D000F016FBDFF8F403EE
:103D900000210170DFF8F0030068807D400604D543
:103DA000DFF8E80390F8460003E0DFF8E00390F85E
:103DB0002500DFF8DC130870DFF8C4030078002862
:103DC00011D1DFF8C803C07800280CD0DFF8C00399
:103DD0000078032801DB022002E0DFF8B40300785A
:103DE000DFF8AC13087000F059F8DFF88C030078A6
:103DF00000282ED1DFF890030068002801D100F0E0
:103E0000DBFADFF8840300684068007810F02000D7
:103E1000DFF880130870DFF870030068406880786E
:103E2000DFF874130870DFF860030068007A06009A
:103E3000DFF8540300684068401E0500B01C28707D
:103E4000DFF85803EE210160711CC9B2280001F0AF
:103E50006FFBFFF7A5F910F0010090F001000500DD
:103E6000DFF83C03007800280FD1DFF83803007832
:103E700000280AD1BF4883210170EDB2002D01D086
:103E8000FFF78AF900F037F807E0BA48022101701D
:103E9000EDB2002D01D0FFF77FF970BD80B5FFF7BF
:103EA000CEFC0121BA4A92F900209140491E0840F7
:103EB000BD490870B2480078002802D102F01CFA0F
:103EC00001E002F0D5F901BD80B5AF48006890F877
:103ED0002100B5490870AC48006890F82200B34949
:103EE0000870B2480078002802D1B0480121017062
:103EF00002F0B1FA01BD80B5AD480068400840004D
:103F0000AB490860A748002101709D48007802284D
:103F100002D102F05DFA08E099480078032802D146
:103F200002F0C3FA01E000F001F801BD80B5944849
:103F3000007800280DD1FCF7BDFE9B490978C0B27E
:103F4000814203D31C2000F0EFF804E002F00BFAEA
:103F500001E002F008FA01BD80B587480121017037
:103F600087480078FFF7DDFE01BD10B58C4800786A
:103F7000002803D18B480078002801D000F01CFAFB
:103F8000FFF70EF910F0010090F0010004007948ED
:103F9000007802280AD1774883210170E4B2002C0E
:103FA00001D0FFF7F9F8FFF7A6FF04E0E4B2002C18
:103FB00001D0FFF7F1F810BD80B5714800780028F6
:103FC00005D06F480078012801D000F0F5F9694864
:103FD0000421017000F079F96A480078401C6949B1
:103FE00008706A4890F8240066490978884203D22C
:103FF000E12000F099F817E065480078401C63491B
:1040000091F83110884203DA61480078401C02E0E0
:104010005E4890F831005E490870FFF73FFF554851
:1040200083210170FFF782FF01BD10B5FFF7B8F8DB
:1040300010F0010090F0010004004E480078832841
:104040001AD15448007800280BD14A4885210170C4
:10405000E4B2002C01D0FFF79FF8002000F064F8D4
:104060000FE044488621017002F04EFAE4B2002CC1
:1040700001D0FFF791F804E0E4B2002C01D0FFF783
:104080008BF810BD70B504000D00FFF789F810F033
:10409000010090F0010006003648007886281DD106
:1040A00034488721017002F094FAF6B2002E01D054
:1040B000FFF772F838480078E4B284420AD1EDB2D2
:1040C000002D03D01B2000F02FF80CE0002000F0A2
:1040D0002BF808E0E92000F027F804E0F6B2002E03
:1040E00001D0FFF759F870BD10B5FFF759F810F07F
:1040F000010090F0010004001E48007886280DD1D0
:104100001C488721017002F064FAE4B2002C01D04F
:10411000FFF742F8E92000F007F804E0E4B2002CD1
:1041200001D0FFF739F810BD10B504001248002186
:10413000017010480021017000F0C7F8FFF7DBFBA9
:10414000FFF71CFC2000C0B2FCF711FE10BD80B5CB
:104150000D480068002801D100F02EF9FFF78DF915
:1041600009490968C86000F005FD07490968088227
:1041700001BD00008F4E0020974E0020D641002048
:10418000904E0020944E0020C4400020AC490020F6
:10419000914E0020964E0020954E00203888084011
:1041A000824E0020844E0020924E0020934E00202C
:1041B00090860840794800210170794800210170FB
:1041C000704738B50400E4B2002C01D100F0F4F8D7
:1041D000FEF7E6FF10F0010090F0010005006F48C7
:1041E000007820436D49087000F08FF8EDB2002D83
:1041F00001D0FEF7D1FF31BD38B50400E4B2002C88
:1042000001D100F0D9F8FEF7CBFF10F0010090F0DB
:104210000100050061480078204360490870EDB254
:10422000002D01D0FEF7B8FF31BD38B50400E4B26F
:10423000002C01D100F0C0F8FEF7B2FF10F0010031
:1042400090F0010005005548007894F0FF01084007
:1042500052490870EDB2002D01D0FEF79DFF00F02D
:1042600034F831BD10B5FEF79BFF10F0010090F05F
:1042700001000400494800210170494800210170F3
:104280004848EF2101604748ED2101604548ED2194
:104290000160E4B2002C01D0FEF77EFF01F0C1F90D
:1042A00010BD10B5FEF77CFF10F0010090F001008A
:1042B00004003A480078002801D000F026F8E4B263
:1042C000002C01D0FEF768FF10BD10B5FEF768FFA7
:1042D00010F0010090F00100040030480078002840
:1042E0000DD131480078000609D430480078002804
:1042F00005D12F480078000601D400F01EF8E4B282
:10430000002C01D0FEF748FF10BD10B5FEF748FFA6
:1043100010F0010090F0010004002148007800280E
:1043200005D11F48012101701E48E3210160E4B25C
:10433000002C01D0FEF730FF10BD38B5FEF730FF7E
:1043400010F0010090F001000400154800780028EA
:104350001ED01348002101701248EF21016011485E
:10436000ED2101600F48ED210160FEF719FF10F00B
:10437000010090F0010005002A20FEF782FF0D48A1
:104380007FF004010160EDB2002D01D0FEF704FFC3
:10439000E4B2002C01D0FEF7FFFE31BD8E4E0020AE
:1043A0008D4E002038880840824E0020844E002028
:1043B0008F4E00203488084080B502F0B1F901BD6D
:1043C00010B5FEF7EDFE10F0010090F00104E4B22C
:1043D000002C01D0FEF7E0FE2000C0B210BD80B579
:1043E00000F0A0FAFFF718FAFFF7E4FE01F0C6F8B4
:1043F000FFF78EFCFEF7E2FF01BD80B5FFF7E0FF9F
:10440000002801D0FFF7D8FF06480078002803D124
:1044100001F0FCF8FFF70DFAFEF7EDFF02F010FADD
:1044200001BD0000D641002070B504000D0016004B
:104430002A003100200002F037FA200070BD02008F
:1044400010B50400E4B2002C0DD1FF20FEF78EFC65
:104450000021002002F05CFA204800210170204871
:10446000012101700EE01F48002101701D480078F5
:10447000002801D0012000E000200FF24101C0B26D
:1044800002F046FA10BD70B504000D001648007821
:10449000FF2810D00420FEF795FA0600002E08D061
:1044A000C0203070B570F47031000F480078FEF70E
:1044B000B6FA002000E0012070BD000070B50400D5
:1044C0000D00C4F3800010F0010006003100C9B2F5
:1044D0002000C0B2FFF7D7FF002870BDA14E00201A
:1044E000A24E0020564E0020B841002080B500F0BA
:1044F0002CFB02BDBF480021016070472DE9F0414F
:1045000004000D001600290089B22000C0B200F09E
:1045100032F88046B8F1000F03D0C8F80460404676
:1045200027E01020FEF703FD8046B8F1000F1FD0F2
:1045300088F80A40A8F80850C8F804600020C8F8B5
:1045400000000020C8F80C00AB480068002803D128
:10455000A948C0F8008009E0A7480068070038684B
:10456000002801D03F68FAE7C7F80080404600E025
:104570000020BDE8F08102009F4B1B681800002856
:1045800009D0038989B28B4203D1837AD2B2934294
:1045900001D00068F3E77047002801D000210181B5
:1045A00070472DE9F04104000D001600FEF7F8FDFC
:1045B00010F0010090F0010007003200290089B2DC
:1045C0002000C0B2FFF79AFF8046FFB2002F01D053
:1045D000FEF7E2FDB8F1000F01D0002000E0082056
:1045E000C0B2BDE8F0812DE9F04104000D001600D5
:1045F000FEF7D6FD10F0010090F001000700320038
:10460000290089B22000C0B2FFF778FF8046B8F1D8
:10461000000F01D0C8F80C60FFB2002F01D0FEF7E8
:10462000BBFDB8F1000F01D0002000E00820C0B2AF
:10463000BDE8F081F8B504000D00FEF7B1FD10F003
:10464000010090F001000600290089B22000C0B2EC
:10465000FFF791FF0700002F02D03800FFF79CFF03
:10466000F6B2002E01D0FEF797FD002F01D00020FA
:1046700000E00620C0B2F2BD2DE9F04104000D00BB
:104680000027FEF78DFD10F0010090F001000600FC
:10469000290089B22000C0B2FFF76DFF8046B8F153
:1046A000000F02D0D8F804000700F6B2002E01D0A7
:1046B000FEF772FD3800BDE8F0812DE9F04182B0CF
:1046C00004000094FEF76CFD10F0010090F0010072
:1046D000050048480068201846490860EDB2002DE2
:1046E00001D0FEF759FD4448006800287BD04248BD
:1046F0000068060000200700002E74D05FF000085C
:10470000FEF74EFD10F0010090F001000500BDF82D
:10471000020000281AD19DF80100002816D1307936
:104720009DF80010884205D330799DF80010401A9A
:10473000307116E000987168884204D27068009960
:10474000401A70600DE0002070600AE00098716807
:10475000884204D270680099401A706001E000201D
:104760007060B08800280ED1F08800280BD1F06866
:10477000002808D03089002805D03189B07AFEF7AA
:10478000A4FAF0687060B088002802D1F088002890
:1047900002D0308900280AD1002F03D11648316891
:1047A000016001E030683860B046366801E03700EB
:1047B0003668EDB2002D01D0FEF7EEFCB8F1000F27
:1047C0009AD0B8F80400002809D1B8F806000028EB
:1047D00005D1B8F8081098F80A00FEF776FA4046B6
:1047E000FEF740FC88E7BDE8F381024800687047A7
:1047F00000000000884D0020844D00200448002166
:104800008171034800210180704701498871704718
:10481000F44C002010B500242148007880B24000FC
:1048200080B2FEF784FB1F4908601D4800784200F3
:1048300000211C480068FEF78DF82000C0B202F08D
:1048400069F8641C2000C0B2FDF714F9641C200054
:10485000C0B202F023FA641C2000C0B203F078FF5B
:10486000641C2000C0B204F00FFB641C2000C0B226
:1048700004F028FE641C2000C0B206F0EDFB641CAE
:104880002000C0B206F0CCFE641C2000C0B207F0CD
:10489000EDFC641C2000C0B200F006F810BD000062
:1048A000968721008C4D002017490870704780B50D
:1048B00007F02CFD07F0CCFF01BD70B504000D0022
:1048C000280413D510480078FEF7EBF80600002EF8
:1048D00008D03000FEF78FF80B480078FEF7E1F8BB
:1048E0000600F4E795F4004080B20CE0A80603D57A
:1048F00095F0200080B206E0E80603D595F01000A0
:1049000080B200E0002070BD774E002080B507F037
:10491000ACFF01BDEFF3108072B67047EFF310806B
:1049200062B6704770B588B0DFF8300614210160B8
:10493000DFF82C063F210160DFF8280655210160D1
:10494000DFF82406FC210160DFF8200685210160E4
:10495000DFF81C0601210160DFF81806152101604F
:10496000DFF8140600210160DFF810061021016055
:10497000DFF80C060E210160DFF808060321016054
:10498000DFF804060921016004200B210160DFF833
:10499000FC05FF21016080212A20FEF708FC802110
:1049A0002B20FEF704FC2A20FEF713FC2B20FEF739
:1049B00010FC80213120FEF7FAFBDFF8D4050068F7
:1049C000000CDFF8D0150860FEF7EAFB10F00100DC
:1049D00090F001000400DFF8C00502210160DFF85B
:1049E000BC0500210160DFF8B80528210160E4B2B0
:1049F000002C01D0FEF7D0FBDFF8A805006800030B
:104A0000FAD5DFF8A405006850F00300DFF8981528
:104A10000860DFF8940500684007FAD5DFF88805DC
:104A2000006850F00A00DFF8801508603120FEF7BA
:104A3000D0FBDFF8780548210160FFF766FCDFF85E
:104A400070050068C007FAD500221100002210008E
:104A5000C0B2102809DA89B2DFF85825126812F0BE
:104A6000010252EA4101401CF2E789B2002903D059
:104A700089B2B1F5607F02D14BF6BE22110089B236
:104A8000CAB2DFF834351A6089B2090A89B2DFF890
:104A900028251160DFF8C014096800291ED0002005
:104AA0000500EDB2202D14DA002000210E00F6B230
:104AB000082E09DAC0B24000DFF8F814096811F0D6
:104AC00001010843761CF2E7EDB200A968546D1CA1
:104AD000E7E700A8DFF8801409688847FFF72DFC96
:104AE000DFF8C80440210160DFF8C004006850F01E
:104AF0002000DFF8B8140860DFF8C004002101606E
:104B0000DFF8BC0400210160DFF8B8040021016077
:104B1000DFF8B40400210160DFF8B0040021016077
:104B2000DFF8AC040021016008B070BDDFF8A40418
:104B3000006830F00C0050F00400DFF898140860B2
:104B4000DFF894040068C0B27047DFF88814096881
:104B500031F00C0151F00401DFF878241160DFF826
:104B60007814096809020800DFF84C14096808186D
:104B700080B2704738B5FEF713FB10F0010090F0DB
:104B800001000500DFF8100401210160DFF81004C6
:104B9000006800020400DFF8040400680443EDB27A
:104BA000002D01D0FEF7F8FA200080B232BD10B51A
:104BB00082B0FEF7F5FA10F0010090F00100040059
:104BC000DFF8D40300210160DFF8D0030068DFF8CC
:104BD0000C1409688DF80010DFF8041409688DF8CA
:104BE0000110DFF8001409688DF8021000218DF81B
:104BF0000310E4B2002C01D0FEF7CEFA009816BDE7
:104C000010B582B0FEF7CCFA10F0010090F0010070
:104C10000400DFF8840310210160DFF8C00300689E
:104C20008DF80000DFF8B80300688DF80100DFF8A8
:104C3000B40300688DF8020000208DF80300E4B290
:104C4000002C01D0FEF7A8FA009816BD11B581B06E
:104C50000198000E002801D0FFF7AEFBFFF7A7FF79
:104C6000DFF8841309684018DFF87C130860DFF868
:104C7000780300680199401ADFF86C130860FEF7AA
:104C80008FFA10F0010090F001000400DFF8080333
:104C900000210160DFF844039DF8041001609DF8D5
:104CA0000500DFF83C1308609DF80600DFF83413B8
:104CB0000860E4B2002C01D0FEF76EFA13BD31B5E6
:104CC00000250098000E002801D0FFF775FBFEF7C5
:104CD00067FA10F0010090F001000400DFF80C0307
:104CE0000068C00609D501200500DFF80003006850
:104CF00030F01000DFF8F4120860DFF89C02302179
:104D00000160DFF8D8029DF8001001609DF80100F5
:104D1000DFF8CC1208609DF80200DFF8C8120860C6
:104D2000DFF8CC027FF010010160EDB2002D07D05A
:104D3000DFF8B802006850F01000DFF8B012086029
:104D4000E4B2002C01D0FEF727FA31BD31B50025C1
:104D50000098000E002801D0FFF72EFBFEF720FA86
:104D600010F0010090F001000400DFF880020068FC
:104D7000000709D501200500DFF87002006830F057
:104D80000800DFF868120860834820210160DFF81E
:104D90004C029DF8001001609DF80100DFF8401200
:104DA00008609DF80200DFF83C120860DFF840025E
:104DB000006830F00800DFF838120860EDB2002D0E
:104DC00005D08A48006850F0080088490860E4B2BD
:104DD000002C01D0FEF7E0F931BD38B583480068FA
:104DE0000400834800680500EDB2E4B214EA05004F
:104DF000C00605D5FEF784FB7D487FF010010160F9
:104E0000EDB2E4B214EA0500000706D5FEF77CFB1C
:104E100077487FF0080101600BE0EDB2E4B214EADC
:104E20000500C00705D500F06EF871487FF001015C
:104E3000016031BD10B57048006804002A20FEF7FB
:104E400020FA6E480068E4B22040000706D56B489F
:104E50007FF00801016001F0C9FB1AE067480068B3
:104E6000E4B22040C00606D564487FF0100101601E
:104E700001F0C6FB0DE061480068E4B22040C007C5
:104E800007D55D480068400840005B49086001F0B4
:104E900018F85B48006804005A480068E4B22040F3
:104EA000400709D500F01AFC56487FF00401016064
:104EB000554800684006F5D410BD10B55348006849
:104EC000040053480068E4B22040400705D550482C
:104ED0007FF00401016001F055F810BD4D487FF0EE
:104EE0007F0101704148006850F001003F490860AF
:104EF00070473E480068400840003C49086045480B
:104F000090F900007047444909680800414991F947
:104F1000001040B2814201DA3E490870704710B576
:104F2000FEF73EF910F0010090F001000400314856
:104F30000078002807D1FEF7EDFA2B4909684018E0
:104F40002949086002E02B4800210170E4B2002CDE
:104F500001D0FEF721F910BDD44D0020A4860840F1
:104F6000AC860840B086084058860840A0860840B5
:104F7000B8860840C886084008860840D48608409D
:104F8000D8860840DC860840E887084094870840B7
:104F9000F80F2800CC4D00201088084014880840E5
:104FA0001888084004200D400488084024860840E2
:104FB000648608409C86084014700D409085084027
:104FC00094850840988508409C850840A085084045
:104FD000A485084000700D4018700D4024880840DA
:104FE000208808401C880840D04D002008880840D0
:104FF0000C8808407D4E002090860840308808408C
:105000008C860840348808404C86084094860840C6
:105010002C8808407C4E002060860840DFF8BC04E5
:1050200000210160704780B503F032FB58B90022BF
:10503000012100F066F930B1016800291CBFBDE80C
:10504000024001F0FBBF01BDDFF8901409680020A9
:105050000A4604E0537B042B08BF401C5268002A18
:10506000F8D1DFF87C241278C0B282420BD3002042
:1050700001E04968401C0029FBD1DFF86814097879
:10508000C0B2814201D201207047002070472DE953
:10509000F04107468846387B002400F041F9054678
:1050A000012605BB7A89397B386800F0BFF8050016
:1050B00033D02C81387C287407F1100008F0EAFB0B
:1050C00068614FF67F41388B288301246889084046
:1050D000688141074FBF40F08000DFF80C14097869
:1050E00040EAC11068816889C10901F00701B8F17F
:1050F000000F14D002226A732A68927B520703D5EC
:10510000DFF8E823128A2A8159B34FF67F42104014
:10511000491E40EAC110688123E0002630E009B949
:1051200000261EE0810605D5FDF748FC00F07F0053
:105130005F3008E0C00605D5FDF740FC00F00F0029
:105140000A3000E001202881042068732021DFF864
:10515000A0733878FFF790FA18B938782021FDF756
:10516000B4FD6CB12A89697B284600F072F838B129
:10517000686908B1FDF776FF2846FDF773FF002642
:105180003046BDE8F08170B584B0002400F0C8F866
:10519000002837D0417B062934D101684489097A37
:1051A0008DF8081001680988ADF8001000F000F9CA
:1051B000200526D50020BDF8001000F026F800BB21
:1051C000DFF82843A18C00A80AF055F80021002040
:1051D00000F01BF805464FF6FF767DB12868018880
:1051E000B1420ED0A18C0AF03DF81A2809D06D68A2
:1051F000002DF2D068890005F9D5EEE700200AF00D
:1052000043F80124204604B070BD18B9DFF8CC0281
:10521000006800E0406840B142891205FAD50029D3
:105220001EBF026812888A42F4D1704770B50446E6
:105230000D4616461C20FDF77AFE48B10021417349
:105240000573468101818173C173046041614160CE
:1052500070BD38B5002843D0012910D19F4C246877
:10526000002304E0657B012D08BF5B1C6468002CF3
:10527000F8D1A04C2478DBB29C4216D211E004296C
:1052800011D1964C2468002304E0657B042D08BFEF
:105290005B1C6468002CF8D1914C2478DBB29C42F2
:1052A00003D2112032BD02291AD14173028100219B
:1052B00041608A490A6832B100E00A465168002913
:1052C000FBD1506000E00860894C20782021FFF776
:1052D000D3F918B920782021FDF7F7FC002032BD62
:1052E000C12032BD7D4A1268002106E092F80DC04F
:1052F000844514BFFF28491C5268002AF6D1C8B261
:10530000704710B97548006800E0406838B1437BC9
:105310008B42FAD11AB103689B7B5B07F5D47047C7
:105320006E49096800E0496821B10A7B8242FAD1DE
:1053300008467047002070476849096800E04968DE
:1053400061B10A6813888342F9D1126A13785278DE
:1053500003EB0222D205F2D40846704700207047C2
:10536000F8B5044600260D4620000AD05B480768C1
:1053700000E07F682FB129463846A0470128F8D1C0
:105380003E463046F2BD0020704754490A68134635
:105390004FF0000C01E09C465B6843B18342FAD1B8
:1053A0005868934201D108607047CCF804007047F8
:1053B00010B5040011D0FFF7E8FF2068006AFDF780
:1053C00051FE2068FDF74EFE606908B1FDF74AFE08
:1053D0002046BDE81040FDF745BE10BD38B5016858
:1053E0003E4A098812680023002409E0557B052DF8
:1053F00001BF641C15682D888D4208BF5B1C526874
:10540000002AF3D13C490978DBB28B423FBF3B49CC
:105410000978E4B28C422EBF01213449098A018106
:105420004FF6FF7205214173418941F400614181CA
:1054300000680188914205D02C49898C09F012FF3F
:105440001A2804D1BDE83240012009F01DBF31BD4A
:1054500010B550B150F8081C002902BFA0F1080196
:105460008A79FF2A03D0FDF7C6FA052010BD204C2B
:1054700022788A7122490A7801462248FDF7F0FB1A
:10548000012806D120784FF40051FDF71EFC0020C2
:1054900010BD042010BD70B5FDF782FE194D2E68B9
:1054A00000F0010080F001048EB1114856F8081C8C
:1054B000007800294FF4005102D0FDF706FC01E00E
:1054C000FDF726FC002231462846FDF7A7FB0CB16C
:1054D000FDF762FE304670BD00000000344E002033
:1054E000A6B82100A7B82100BC410020D447002065
:1054F0004A4E002093B8210023F321002AF3210013
:105500002EFC2100384E0020D2B2002A05D0521EB7
:105510000B780360001D491CF6E77047D2B2002AE1
:1055200005D0521E03680B70001D491CF6E770473A
:1055300038B504000D00EDB2002D01D1FEF73CFF9F
:1055400020780D490860641C6D1EEDB2002DF7D166
:1055500031BD38B504000D00EDB2002D01D1FEF7CC
:105560002BFF054800682070641C6D1EEDB2002DF5
:10557000F7D131BD0000000028880840DFF8580A44
:1055800000210170DFF8540A00210170DFF8500A91
:1055900000210160DFF84C0A00210170DFF8480AA1
:1055A0000FF275110160DFF8440A00210170DFF885
:1055B000400A00210170DFF83C0A00210170DFF889
:1055C000380A00210170704710B5DFF8300A052154
:1055D0000160FDF7E5FD10F0010090F0010004000E
:1055E0002A20FDF74EFEDFF8180A7FF00401016063
:1055F000E4B2002C01D0FDF7CFFDDFF8080A006807
:1056000050F00400DFF8FC19086010BD80B5FEF70B
:1056100029FEDFF8C40900210170002000F0BBFC66
:1056200001BD80B5DFF8CC0901210170DFF8C009A8
:105630000078002805D100F005F8DFF8B80900214E
:10564000017001BD10B5DFF8C009006840084000D6
:10565000DFF8B4190860DFF8A40905210160DFF85C
:10566000AC09ED210160DFF8A409ED210160FDF72F
:1056700097FD10F0010090F0010004002A20FDF7D2
:1056800000FEDFF87C097FF004010160E4B2002C29
:1056900001D0FDF781FDDFF848090068002803D03C
:1056A000DFF83C09FBF79CFADFF83C090FF26901CF
:1056B0000160DFF830090078002804D1DFF82C09F8
:1056C0000078002809D0DFF81C0900210170DFF8FC
:1056D0001C090021017000F0FFFB10BD80B5DFF850
:1056E00014090078002816D1DFF80409012101709F
:1056F000DFF8F40800688047DFF8F4080021017043
:10570000DFF8F0080078002805D0FFF79BFFDFF8EE
:10571000E4080021017001BD2DE9F84F0027DFF8F2
:10572000C4080078002801D0FEF746FEDFF8B40870
:1057300081210170DFF8D8080078002809D0DFF84F
:10574000D408006800060BD4DFF8C80800684006DB
:1057500006D4DFF890080021017000F0BDFB5BE289
:1057600000F0BAFEDFF8A008006840084000DFF84B
:1057700098180860DFF8740800210170DFF89808B5
:10578000DFF85418097801700421DFF89008FFF75A
:10579000E0FEDFF88808007810F07F00C01EDFF818
:1057A00080180870DFF8780800787D2806DADFF8BE
:1057B0006C08407810F0070004280ADBDFF84C087A
:1057C000ED210160DFF84408ED21016000F060FB8D
:1057D00022E2DFF84808407810F0070002285BD189
:1057E000DFF8F8070078002856D1022100A8FFF75B
:1057F000B0FEFDF7D5FC10F0010090F001008146ED
:10580000DFF82008007886283CD1DFF81C08006803
:10581000002801D1FEF7D0FD9DF9000049388246ED
:105820009DF8010010F07F0083465946C9B25046EA
:1058300040B2FEF765F9DFF8F01709684877DFF83E
:10584000E807006880F81EB0DFF8DC07006880F821
:105850001FA05FFA89F9B9F1000F01D0FDF79CFC98
:105860009DF8010000060AD5DFF8B007407810F077
:105870001001DFF8A807C078FEF704FC09E0FEF786
:1058800033FC06E05FFA89F9B9F1000F01D0FDF7AA
:1058900083FC00F0FDFABFE1DFF888070078862876
:1058A00001D1FEF721FCDFF870070078002823D033
:1058B000DFF82807007800281ED1DFF85C070078A1
:1058C000012816D0DFF850070078022805D1DFF84C
:1058D0004C074078072108420BD1DFF83C070078DD
:1058E000032809D1DFF83407407810F007000328B7
:1058F00002D000F0F9FA8FE1DFF820078078C0F3DA
:1059000081000500DFF814078078C0B28009060026
:10591000DFF818070068002810D1F6B2012E02D077
:10592000EDB2012D0AD1DFF8E406ED210160DFF8C8
:10593000DC06ED21016000F0ABFA6DE1EDB2DFF8BD
:10594000F006285CF6B2DFF8E816715C08188046AD
:10595000F6B2002E06D0DFF8C4064078400601D526
:10596000B8F10208DFF8B80600785FFA88F818F195
:105970000201884202DA00F0B7FA4DE1DFF8A00632
:105980000078B0EB0800801EDFF8A8160870DFF87A
:105990008C064078000701D525200700FFB2DFF80C
:1059A00094060078C0194C3080B2FBF70CF9DFF890
:1059B00030160860DFF828060068002806D1DFF8F6
:1059C0004C06E821016000F08FFA25E10020040078
:1059D000DFF808060078002807D1DFF84006407895
:1059E00010F02000DFF804160870DFF800060078D9
:1059F00000285FD0FDF7D4FB10F0010090F001000B
:105A00008146DFF81806407810F00700032818D107
:105A1000FBF7C2F8002802D00420040011E0DFF8F0
:105A200018060078002806D009F01AFDFE2808D1D3
:105A30000420040005E0FBF7A0F8002801D00420B2
:105A40000400E4B2042C08D1DFF8F005006850F03F
:105A50000400DFF8E815086007E0DFF8E0050068FB
:105A600030F00400DFF8D4150860FDF799FB10F062
:105A7000010090F0010082462A20FDF702FCDFF8C9
:105A8000C0057FF0010101605FFA8AFABAF1000FE8
:105A900001D0FDF781FBDFF87005006850F00100D0
:105AA000DFF8641508605FFA89F9B9F1000F01D0D9
:105AB000FDF772FBDFF8280500684C30DFF8201591
:105AC00009684860DFF8181509680864DFF864059C
:105AD0000078DFF80C1509680872DFF8041509680A
